{
  "address": "0xfdF25eF5B5Ccb719bEb5F1928D8801b918037870",
  "abi": [
    {
      "anonymous": false,
      "inputs": [
        {
          "indexed": false,
          "internalType": "uint256",
          "name": "oldClaimDelay",
          "type": "uint256"
        },
        {
          "indexed": false,
          "internalType": "uint256",
          "name": "newClaimDelay",
          "type": "uint256"
        }
      ],
      "name": "ClaimDelayUpdated",
      "type": "event"
    },
    {
      "anonymous": false,
      "inputs": [
        {
          "indexed": true,
          "internalType": "uint256",
          "name": "donationId",
          "type": "uint256"
        },
        {
          "indexed": true,
          "internalType": "address",
          "name": "donor",
          "type": "address"
        },
        {
          "indexed": false,
          "internalType": "uint256",
          "name": "amount",
          "type": "uint256"
        },
        {
          "indexed": true,
          "internalType": "address",
          "name": "target",
          "type": "address"
        }
      ],
      "name": "DonationAdded",
      "type": "event"
    },
    {
      "anonymous": false,
      "inputs": [
        {
          "indexed": true,
          "internalType": "address",
          "name": "previousOwner",
          "type": "address"
        },
        {
          "indexed": true,
          "internalType": "address",
          "name": "newOwner",
          "type": "address"
        }
      ],
      "name": "OwnershipTransferred",
      "type": "event"
    },
    {
      "anonymous": false,
      "inputs": [
        {
          "indexed": false,
          "internalType": "address",
          "name": "account",
          "type": "address"
        }
      ],
      "name": "Paused",
      "type": "event"
    },
    {
      "anonymous": false,
      "inputs": [
        {
          "indexed": true,
          "internalType": "address",
          "name": "donor",
          "type": "address"
        },
        {
          "indexed": false,
          "internalType": "uint256",
          "name": "amount",
          "type": "uint256"
        }
      ],
      "name": "RewardClaimed",
      "type": "event"
    },
    {
      "anonymous": false,
      "inputs": [
        {
          "indexed": false,
          "internalType": "uint256",
          "name": "oldRewardPeriodSize",
          "type": "uint256"
        },
        {
          "indexed": false,
          "internalType": "uint256",
          "name": "oldDecayNumerator",
          "type": "uint256"
        },
        {
          "indexed": false,
          "internalType": "uint256",
          "name": "oldDecayDenominator",
          "type": "uint256"
        },
        {
          "indexed": false,
          "internalType": "uint256",
          "name": "newRewardPeriodSize",
          "type": "uint256"
        },
        {
          "indexed": false,
          "internalType": "uint256",
          "name": "newDecayNumerator",
          "type": "uint256"
        },
        {
          "indexed": false,
          "internalType": "uint256",
          "name": "newDecayDenominator",
          "type": "uint256"
        }
      ],
      "name": "RewardPeriodParamsUpdated",
      "type": "event"
    },
    {
      "anonymous": false,
      "inputs": [
        {
          "indexed": true,
          "internalType": "address",
          "name": "token",
          "type": "address"
        },
        {
          "indexed": true,
          "internalType": "address",
          "name": "to",
          "type": "address"
        },
        {
          "indexed": false,
          "internalType": "uint256",
          "name": "amount",
          "type": "uint256"
        }
      ],
      "name": "TransferERC20",
      "type": "event"
    },
    {
      "anonymous": false,
      "inputs": [
        {
          "indexed": true,
          "internalType": "address",
          "name": "oldTreasury",
          "type": "address"
        },
        {
          "indexed": true,
          "internalType": "address",
          "name": "newTreasury",
          "type": "address"
        }
      ],
      "name": "TreasuryUpdated",
      "type": "event"
    },
    {
      "anonymous": false,
      "inputs": [
        {
          "indexed": false,
          "internalType": "address",
          "name": "account",
          "type": "address"
        }
      ],
      "name": "Unpaused",
      "type": "event"
    },
    {
      "inputs": [],
      "name": "PACT",
      "outputs": [
        {
          "internalType": "contract IERC20",
          "name": "",
          "type": "address"
        }
      ],
      "stateMutability": "view",
      "type": "function"
    },
    {
      "inputs": [],
      "name": "cUSD",
      "outputs": [
        {
          "internalType": "contract IERC20",
          "name": "",
          "type": "address"
        }
      ],
      "stateMutability": "view",
      "type": "function"
    },
    {
      "inputs": [
        {
          "internalType": "address",
          "name": "_donorAddress",
          "type": "address"
        }
      ],
      "name": "calculateClaimableRewards",
      "outputs": [
        {
          "internalType": "uint256",
          "name": "",
          "type": "uint256"
        }
      ],
      "stateMutability": "view",
      "type": "function"
    },
    {
      "inputs": [
        {
          "internalType": "address",
          "name": "_donorAddress",
          "type": "address"
        },
        {
          "internalType": "uint256",
          "name": "_lastPeriodNumber",
          "type": "uint256"
        }
      ],
      "name": "calculateClaimableRewardsByPeriodNumber",
      "outputs": [
        {
          "internalType": "uint256",
          "name": "",
          "type": "uint256"
        }
      ],
      "stateMutability": "view",
      "type": "function"
    },
    {
      "inputs": [],
      "name": "claimDelay",
      "outputs": [
        {
          "internalType": "uint256",
          "name": "",
          "type": "uint256"
        }
      ],
      "stateMutability": "view",
      "type": "function"
    },
    {
      "inputs": [],
      "name": "claimRewards",
      "outputs": [],
      "stateMutability": "nonpayable",
      "type": "function"
    },
    {
      "inputs": [],
      "name": "decayDenominator",
      "outputs": [
        {
          "internalType": "uint256",
          "name": "",
          "type": "uint256"
        }
      ],
      "stateMutability": "view",
      "type": "function"
    },
    {
      "inputs": [],
      "name": "decayNumerator",
      "outputs": [
        {
          "internalType": "uint256",
          "name": "",
          "type": "uint256"
        }
      ],
      "stateMutability": "view",
      "type": "function"
    },
    {
      "inputs": [
        {
          "internalType": "uint256",
          "name": "_amount",
          "type": "uint256"
        }
      ],
      "name": "donate",
      "outputs": [],
      "stateMutability": "nonpayable",
      "type": "function"
    },
    {
      "inputs": [
        {
          "internalType": "contract ICommunity",
          "name": "_community",
          "type": "address"
        },
        {
          "internalType": "uint256",
          "name": "_amount",
          "type": "uint256"
        }
      ],
      "name": "donateToCommunity",
      "outputs": [],
      "stateMutability": "nonpayable",
      "type": "function"
    },
    {
      "inputs": [],
      "name": "donationCount",
      "outputs": [
        {
          "internalType": "uint256",
          "name": "",
          "type": "uint256"
        }
      ],
      "stateMutability": "view",
      "type": "function"
    },
    {
      "inputs": [
        {
          "internalType": "uint256",
          "name": "",
          "type": "uint256"
        }
      ],
      "name": "donations",
      "outputs": [
        {
          "internalType": "address",
          "name": "donor",
          "type": "address"
        },
        {
          "internalType": "address",
          "name": "target",
          "type": "address"
        },
        {
          "internalType": "uint256",
          "name": "rewardPeriod",
          "type": "uint256"
        },
        {
          "internalType": "uint256",
          "name": "blockNumber",
          "type": "uint256"
        },
        {
          "internalType": "uint256",
          "name": "amount",
          "type": "uint256"
        },
        {
          "internalType": "contract IERC20",
          "name": "token",
          "type": "address"
        },
        {
          "internalType": "uint256",
          "name": "tokenPrice",
          "type": "uint256"
        }
      ],
      "stateMutability": "view",
      "type": "function"
    },
    {
      "inputs": [
        {
          "internalType": "address",
          "name": "_donor",
          "type": "address"
        },
        {
          "internalType": "uint256",
          "name": "_rewardPeriodIndex",
          "type": "uint256"
        }
      ],
      "name": "donorRewardPeriod",
      "outputs": [
        {
          "internalType": "uint256",
          "name": "",
          "type": "uint256"
        }
      ],
      "stateMutability": "view",
      "type": "function"
    },
    {
      "inputs": [
        {
          "internalType": "address",
          "name": "",
          "type": "address"
        }
      ],
      "name": "donors",
      "outputs": [
        {
          "internalType": "uint256",
          "name": "lastClaim",
          "type": "uint256"
        },
        {
          "internalType": "uint256",
          "name": "rewardPeriodsCount",
          "type": "uint256"
        }
      ],
      "stateMutability": "view",
      "type": "function"
    },
    {
      "inputs": [
        {
          "internalType": "address",
          "name": "_donorAddress",
          "type": "address"
        }
      ],
      "name": "estimateClaimableReward",
      "outputs": [
        {
          "internalType": "uint256",
          "name": "",
          "type": "uint256"
        }
      ],
      "stateMutability": "view",
      "type": "function"
    },
    {
      "inputs": [],
      "name": "getVersion",
      "outputs": [
        {
          "internalType": "uint256",
          "name": "",
          "type": "uint256"
        }
      ],
      "stateMutability": "pure",
      "type": "function"
    },
    {
      "inputs": [],
      "name": "owner",
      "outputs": [
        {
          "internalType": "address",
          "name": "",
          "type": "address"
        }
      ],
      "stateMutability": "view",
      "type": "function"
    },
    {
      "inputs": [],
      "name": "paused",
      "outputs": [
        {
          "internalType": "bool",
          "name": "",
          "type": "bool"
        }
      ],
      "stateMutability": "view",
      "type": "function"
    },
    {
      "inputs": [],
      "name": "renounceOwnership",
      "outputs": [],
      "stateMutability": "nonpayable",
      "type": "function"
    },
    {
      "inputs": [],
      "name": "rewardPeriodCount",
      "outputs": [
        {
          "internalType": "uint256",
          "name": "",
          "type": "uint256"
        }
      ],
      "stateMutability": "view",
      "type": "function"
    },
    {
      "inputs": [
        {
          "internalType": "uint256",
          "name": "_period",
          "type": "uint256"
        },
        {
          "internalType": "address",
          "name": "_donor",
          "type": "address"
        }
      ],
      "name": "rewardPeriodDonorAmount",
      "outputs": [
        {
          "internalType": "uint256",
          "name": "",
          "type": "uint256"
        }
      ],
      "stateMutability": "view",
      "type": "function"
    },
    {
      "inputs": [],
      "name": "rewardPeriodSize",
      "outputs": [
        {
          "internalType": "uint256",
          "name": "",
          "type": "uint256"
        }
      ],
      "stateMutability": "view",
      "type": "function"
    },
    {
      "inputs": [
        {
          "internalType": "uint256",
          "name": "",
          "type": "uint256"
        }
      ],
      "name": "rewardPeriods",
      "outputs": [
        {
          "internalType": "uint256",
          "name": "rewardPerBlock",
          "type": "uint256"
        },
        {
          "internalType": "uint256",
          "name": "rewardAmount",
          "type": "uint256"
        },
        {
          "internalType": "uint256",
          "name": "startBlock",
          "type": "uint256"
        },
        {
          "internalType": "uint256",
          "name": "endBlock",
          "type": "uint256"
        },
        {
          "internalType": "uint256",
          "name": "donationsAmount",
          "type": "uint256"
        }
      ],
      "stateMutability": "view",
      "type": "function"
    },
    {
      "inputs": [
        {
          "internalType": "contract IERC20",
          "name": "_token",
          "type": "address"
        },
        {
          "internalType": "address",
          "name": "_to",
          "type": "address"
        },
        {
          "internalType": "uint256",
          "name": "_amount",
          "type": "uint256"
        }
      ],
      "name": "transfer",
      "outputs": [],
      "stateMutability": "nonpayable",
      "type": "function"
    },
    {
      "inputs": [
        {
          "internalType": "address",
          "name": "newOwner",
          "type": "address"
        }
      ],
      "name": "transferOwnership",
      "outputs": [],
      "stateMutability": "nonpayable",
      "type": "function"
    },
    {
      "inputs": [],
      "name": "treasury",
      "outputs": [
        {
          "internalType": "contract ITreasury",
          "name": "",
          "type": "address"
        }
      ],
      "stateMutability": "view",
      "type": "function"
    },
    {
      "inputs": [
        {
          "internalType": "uint256",
          "name": "_newClaimDelay",
          "type": "uint256"
        }
      ],
      "name": "updateClaimDelay",
      "outputs": [],
      "stateMutability": "nonpayable",
      "type": "function"
    },
    {
      "inputs": [
        {
          "internalType": "uint256",
          "name": "_newRewardPeriodSize",
          "type": "uint256"
        },
        {
          "internalType": "uint256",
          "name": "_newDecayNumerator",
          "type": "uint256"
        },
        {
          "internalType": "uint256",
          "name": "_newDecayDenominator",
          "type": "uint256"
        }
      ],
      "name": "updateRewardPeriodParams",
      "outputs": [],
      "stateMutability": "nonpayable",
      "type": "function"
    },
    {
      "inputs": [
        {
          "internalType": "contract ITreasury",
          "name": "_newTreasury",
          "type": "address"
        }
      ],
      "name": "updateTreasury",
      "outputs": [],
      "stateMutability": "nonpayable",
      "type": "function"
    }
  ],
  "transactionHash": "0xef76888dcd50b25942901622cac60887d74844eec60b56c0d0cb853a3b542674",
  "args": [],
  "solcInputHash": "9a6d5504dd144f7e7a378680a80254b3",
  "bytecode": "0x608060405234801561001057600080fd5b50611917806100206000396000f3fe608060405234801561001057600080fd5b50600436106101cf5760003560e01c8063821787ec11610104578063ca0cdea8116100a2578063ed409ff311610071578063ed409ff314610452578063f14faf6f1461045b578063f2fde38b1461046e578063f8626af81461048157600080fd5b8063ca0cdea8146103dd578063cd75000c14610419578063e247b8d81461042c578063e48508df1461043f57600080fd5b806392ade299116100de57806392ade299146103a5578063beabacc8146103ae578063c38474c0146103c1578063c89d1a8e146103ca57600080fd5b8063821787ec1461031c5780638252097d1461032f5780638da5cb5b1461039457600080fd5b80633b9a01761161017157806361d027b31161014b57806361d027b3146102db578063715018a6146102ee5780637c62b1af146102f65780637f51bb1f1461030957600080fd5b80633b9a0176146102785780633ddec5311461028b5780635c975abb146102c557600080fd5b80631fccf672116101ad5780631fccf672146102005780632abfab4d1461022b5780632bef5eef14610234578063372500ab1461026e57600080fd5b806307ea4e57146101d45780630d8e6e2c146101f05780631c8ec299146101f7575b600080fd5b6101dd60cf5481565b6040519081526020015b60405180910390f35b60026101dd565b6101dd60d45481565b60c954610213906001600160a01b031681565b6040516001600160a01b0390911681526020016101e7565b6101dd60cd5481565b6101dd61024236600461166b565b600082815260d2602090815260408083206001600160a01b038516845260050190915290205492915050565b61027661051f565b005b60ca54610213906001600160a01b031681565b6101dd610299366004611563565b6001600160a01b0391909116600090815260d36020908152604080832093835260029093019052205490565b60655460ff1660405190151581526020016101e7565b60cb54610213906001600160a01b031681565b610276610759565b6102766103043660046115ca565b61078f565b610276610317366004611547565b610a24565b6101dd61032a366004611563565b610aa0565b61036c61033d36600461163b565b60d260205260009081526040902080546001820154600283015460038401546004909401549293919290919085565b604080519586526020860194909452928401919091526060830152608082015260a0016101e7565b6033546001600160a01b0316610213565b6101dd60d05481565b6102766103bc3660046115dc565b610ab6565b6101dd60ce5481565b6101dd6103d8366004611547565b610b73565b6104046103eb366004611547565b60d3602052600090815260409020805460019091015482565b604080519283526020830191909152016101e7565b6101dd610427366004611547565b610c3d565b61027661043a36600461163b565b610c54565b61027661044d36600461169a565b610cc3565b6101dd60cc5481565b61027661046936600461163b565b610d67565b61027661047c366004611547565b610e2b565b6104db61048f36600461163b565b60d16020526000908152604090208054600182015460028301546003840154600485015460058601546006909601546001600160a01b0395861696948616959394929391929091169087565b604080516001600160a01b03988916815296881660208801528601949094526060850192909252608084015290921660a082015260c081019190915260e0016101e7565b60655460ff161561054b5760405162461bcd60e51b81526004016105429061174b565b60405180910390fd5b600160005260d26020526000805160206118c2833981519152544310156105845760405162461bcd60e51b815260040161054290611714565b600260975414156105a75760405162461bcd60e51b8152600401610542906117aa565b60026097556105b4610ec6565b33600090815260d36020526040812060d45460ce54919291829110156105e75760d45460ce546105e49190611838565b90505b6105f13382610f87565b845591508161060257505050610752565b60ca546040516370a0823160e01b81523060048201526001600160a01b03909116906370a082319060240160206040518083038186803b15801561064557600080fd5b505afa158015610659573d6000803e3d6000fd5b505050506040513d601f19601f8201168201806040525081019061067d9190611653565b8211156107025760ca546040516370a0823160e01b81523060048201526001600160a01b03909116906370a082319060240160206040518083038186803b1580156106c757600080fd5b505afa1580156106db573d6000803e3d6000fd5b505050506040513d601f19601f820116820180604052508101906106ff9190611653565b91505b60ca54610719906001600160a01b03163384611074565b60405182815233907f106f923f993c2149d49b4255ff723acafa1f2d94393f561d3eda32ae348f72419060200160405180910390a25050505b6001609755565b6033546001600160a01b031633146107835760405162461bcd60e51b815260040161054290611775565b61078d60006110dc565b565b60655460ff16156107b25760405162461bcd60e51b81526004016105429061174b565b600160005260d26020526000805160206118c2833981519152544310156107eb5760405162461bcd60e51b815260040161054290611714565b6002609754141561080e5760405162461bcd60e51b8152600401610542906117aa565b600260975560cb5460408051632fd648bd60e11b815290516000926001600160a01b031691635fac917a916004808301926020929190829003018186803b15801561085857600080fd5b505afa15801561086c573d6000803e3d6000fd5b505050506040513d601f19601f8201168201806040525081019061089091906115ae565b90506001604051633f9409e960e11b81526001600160a01b038581166004830152831690637f2813d29060240160206040518083038186803b1580156108d557600080fd5b505afa1580156108e9573d6000803e3d6000fd5b505050506040513d601f19601f8201168201806040525081019061090d919061161c565b600381111561092c57634e487b7160e01b600052602160045260246000fd5b146109af5760405162461bcd60e51b815260206004820152604760248201527f446f6e6174696f6e4d696e65723a3a646f6e617465546f436f6d6d756e69747960448201527f3a2054686973206973206e6f7420612076616c696420636f6d6d756e697479206064820152666164647265737360c81b608482015260a401610542565b60405163e69d849d60e01b8152336004820152602481018390526001600160a01b0384169063e69d849d90604401600060405180830381600087803b1580156109f757600080fd5b505af1158015610a0b573d6000803e3d6000fd5b50505050610a1a33838561112e565b5050600160975550565b6033546001600160a01b03163314610a4e5760405162461bcd60e51b815260040161054290611775565b60cb80546001600160a01b038381166001600160a01b0319831681179093556040519116919082907f4ab5be82436d353e61ca18726e984e561f5c1cc7c6d38b29d2553c790434705a90600090a35050565b600080610aad8484610f87565b50949350505050565b6033546001600160a01b03163314610ae05760405162461bcd60e51b815260040161054290611775565b60026097541415610b035760405162461bcd60e51b8152600401610542906117aa565b6002609755610b1c6001600160a01b0384168383611074565b816001600160a01b0316836001600160a01b03167f9b035625e569d1d2bf54830a290aefba7ab11610ba8490871dc62b86b63a895683604051610b6191815260200190565b60405180910390a35050600160975550565b6001600090815260d26020526000805160206118c283398151915254431015610bae5760405162461bcd60e51b815260040161054290611714565b60655460ff1615610bd15760405162461bcd60e51b81526004016105429061174b565b60ce54600090815260d26020526040812060038101549091904311610c365760048201546001600160a01b03851660009081526005840160205260409020546001840154610c1f9190611819565b610c2991906117f9565b610c3390826117e1565b90505b9392505050565b600080610c4c8360ce54610f87565b509392505050565b6033546001600160a01b03163314610c7e5760405162461bcd60e51b815260040161054290611775565b60d480549082905560408051828152602081018490527f7625e5482008771a414881eb4c957803f2ab46e99e6da60df6e1310f0f009fec910160405180910390a15050565b6033546001600160a01b03163314610ced5760405162461bcd60e51b815260040161054290611775565b60cc805460cf805460d080549488905591869055908490556040805183815260208101839052908101849052606081018790526080810186905260a08101859052919290917f8fb29c6ced5ce51696c08668df816fab7e60c674a6c36e167d5df9b8a5f499849060c00160405180910390a1505050505050565b60655460ff1615610d8a5760405162461bcd60e51b81526004016105429061174b565b600160005260d26020526000805160206118c283398151915254431015610dc35760405162461bcd60e51b815260040161054290611714565b60026097541415610de65760405162461bcd60e51b8152600401610542906117aa565b600260975560cb5460c954610e0a916001600160a01b03918216913391168461121e565b60cb54610e2390339083906001600160a01b031661112e565b506001609755565b6033546001600160a01b03163314610e555760405162461bcd60e51b815260040161054290611775565b6001600160a01b038116610eba5760405162461bcd60e51b815260206004820152602660248201527f4f776e61626c653a206e6577206f776e657220697320746865207a65726f206160448201526564647265737360d01b6064820152608401610542565b610ec3816110dc565b50565b60ce54600090815260d2602052604090205b4381600301541015610ec35760ce8054906000610ef48361187b565b909155505060ce54600090815260d2602052604090206003820154610f1a9060016117e1565b6002820181905560cc54600191610f3191906117e1565b610f3b9190611838565b6003820155610f4861125c565b80825560cc54600091610f5a91611819565b9050826004015460001415610f7b576001830154610f7890826117e1565b90505b60018201559050610ed8565b6001600160a01b038216600090815260d3602052604081208054829190829081908190610fb59060016117e1565b90505b8360010154811161105957600081815260028501602090815260408083205480845260d290925290912090925087831180610ff65750438160030154115b156110015750611059565b60048101546001600160a01b038a16600090815260058301602052604090205460018301546110309190611819565b61103a91906117f9565b61104490856117e1565b9350816110508161187b565b92505050610fb8565b82611065600183611838565b95509550505050509250929050565b6040516001600160a01b0383166024820152604481018290526110d790849063a9059cbb60e01b906064015b60408051601f198184030181529190526020810180516001600160e01b03166001600160e01b0319909316929092179091526112a2565b505050565b603380546001600160a01b038381166001600160a01b0319831681179093556040519116919082907f8be0079c531659141344cd1fd0a4f28419497f9722a3daafe3b4186f6b6457e090600090a35050565b611136610ec6565b60cd80549060006111468361187b565b909155505060cd54600090815260d16020526040902080546001600160a01b038086166001600160a01b03199283161783556001830180548583169084161790556004830185905543600384015560ce8054600285015560c954600585018054909416921691909117909155670de0b6b3a76400006006830155546111cc903385611374565b6111d5336113d1565b60cd546040518481526001600160a01b0384169133917fdc4e2aab08207c15ed02d2a68af2e6df3472e2d7a636be078843d1724917e3a89060200160405180910390a450505050565b6040516001600160a01b03808516602483015283166044820152606481018290526112569085906323b872dd60e01b906084016110a0565b50505050565b600060d05460cf5460d26000600160ce546112779190611838565b8152602001908152602001600020600001546112939190611819565b61129d91906117f9565b905090565b60006112f7826040518060400160405280602081526020017f5361666545524332303a206c6f772d6c6576656c2063616c6c206661696c6564815250856001600160a01b031661143c9092919063ffffffff16565b8051909150156110d75780806020019051810190611315919061158e565b6110d75760405162461bcd60e51b815260206004820152602a60248201527f5361666545524332303a204552433230206f7065726174696f6e20646964206e6044820152691bdd081cdd58d8d9595960b21b6064820152608401610542565b600083815260d260205260408120600481018054919284926113979084906117e1565b90915550506001600160a01b0383166000908152600582016020526040812080548492906113c69084906117e1565b909155505050505050565b6001600160a01b038116600090815260d36020908152604080832060018101548452600281019092529091205460ce5481146110d7576001820180549060006114198361187b565b909155505060ce5460018301546000908152600284016020526040902055505050565b6060610c33848460008585843b6114955760405162461bcd60e51b815260206004820152601d60248201527f416464726573733a2063616c6c20746f206e6f6e2d636f6e74726163740000006044820152606401610542565b600080866001600160a01b031685876040516114b191906116c5565b60006040518083038185875af1925050503d80600081146114ee576040519150601f19603f3d011682016040523d82523d6000602084013e6114f3565b606091505b509150915061150382828661150e565b979650505050505050565b6060831561151d575081610c36565b82511561152d5782518084602001fd5b8160405162461bcd60e51b815260040161054291906116e1565b600060208284031215611558578081fd5b8135610c36816118ac565b60008060408385031215611575578081fd5b8235611580816118ac565b946020939093013593505050565b60006020828403121561159f578081fd5b81518015158114610c36578182fd5b6000602082840312156115bf578081fd5b8151610c36816118ac565b60008060408385031215611575578182fd5b6000806000606084860312156115f0578081fd5b83356115fb816118ac565b9250602084013561160b816118ac565b929592945050506040919091013590565b60006020828403121561162d578081fd5b815160048110610c36578182fd5b60006020828403121561164c578081fd5b5035919050565b600060208284031215611664578081fd5b5051919050565b6000806040838503121561167d578182fd5b82359150602083013561168f816118ac565b809150509250929050565b6000806000606084860312156116ae578283fd5b505081359360208301359350604090920135919050565b600082516116d781846020870161184f565b9190910192915050565b602081526000825180602084015261170081604085016020870161184f565b601f01601f19169190910160400192915050565b6020808252601e908201527f446f6e6174696f6e4d696e65723a204552525f4e4f545f535441525445440000604082015260600190565b60208082526010908201526f14185d5cd8589b194e881c185d5cd95960821b604082015260600190565b6020808252818101527f4f776e61626c653a2063616c6c6572206973206e6f7420746865206f776e6572604082015260600190565b6020808252601f908201527f5265656e7472616e637947756172643a207265656e7472616e742063616c6c00604082015260600190565b600082198211156117f4576117f4611896565b500190565b60008261181457634e487b7160e01b81526012600452602481fd5b500490565b600081600019048311821515161561183357611833611896565b500290565b60008282101561184a5761184a611896565b500390565b60005b8381101561186a578181015183820152602001611852565b838111156112565750506000910152565b600060001982141561188f5761188f611896565b5060010190565b634e487b7160e01b600052601160045260246000fd5b6001600160a01b0381168114610ec357600080fdfeb7404ce2b5a52e61a6b5c9b4585ed65d8cb4b8848d3ee262a356d0c2c46c5f37a2646970667358221220892b24f235cb5babf0d6636c1881ceae47bd0603e696ffe15bc51a727041447d64736f6c63430008040033",
  "devdoc": {
    "events": {
      "ClaimDelayUpdated(uint256,uint256)": {
        "params": {
          "newClaimDelay": "New claimDelay value",
          "oldClaimDelay": "Old claimDelay value"
        }
      },
      "DonationAdded(uint256,address,uint256,address)": {
        "params": {
          "amount": "Value of the donation",
          "donationId": "Id of the donation",
          "donor": "Address of the donner",
          "target": "Address of the receiver (community or treasury)                    or address of the DonationMiner contract otherwise"
        }
      },
      "RewardClaimed(address,uint256)": {
        "params": {
          "amount": "Value of the reward",
          "donor": "Address of the donner"
        }
      },
      "RewardPeriodParamsUpdated(uint256,uint256,uint256,uint256,uint256,uint256)": {
        "params": {
          "newDecayDenominator": "New decayDenominator value For further information regarding each parameter, see *DonationMiner* smart contract initialize method.",
          "newDecayNumerator": "New decayNumerator value",
          "newRewardPeriodSize": "New rewardPeriodSize value",
          "oldDecayDenominator": "Old decayDenominator value",
          "oldDecayNumerator": "Old decayNumerator value",
          "oldRewardPeriodSize": "Old rewardPeriodSize value"
        }
      },
      "TransferERC20(address,address,uint256)": {
        "params": {
          "amount": "Amount of the transaction",
          "to": "Address of the receiver",
          "token": "ERC20 token address"
        }
      },
      "TreasuryUpdated(address,address)": {
        "params": {
          "newTreasury": "New treasury address",
          "oldTreasury": "Old treasury address"
        }
      }
    },
    "kind": "dev",
    "methods": {
      "calculateClaimableRewards(address)": {
        "params": {
          "_donorAddress": "address of the donor"
        },
        "returns": {
          "_0": "uint256 sum of all donor's rewards that has not been claimed"
        }
      },
      "calculateClaimableRewardsByPeriodNumber(address,uint256)": {
        "params": {
          "_donorAddress": "address of the donor",
          "_lastPeriodNumber": "last reward period number to be computed"
        },
        "returns": {
          "_0": "uint256 sum of all donor's rewards that has not been claimed until _lastPeriodNumber"
        }
      },
      "donate(uint256)": {
        "params": {
          "_amount": "Amount of cUSD tokens to deposit."
        }
      },
      "donateToCommunity(address,uint256)": {
        "details": "Transfers cUSD tokens to the community contract",
        "params": {
          "_amount": "amount of cUSD tokens to deposit",
          "_community": "address of the community"
        }
      },
      "donorRewardPeriod(address,uint256)": {
        "params": {
          "_donor": "address of the donor",
          "_rewardPeriodIndex": "index of the reward period"
        },
        "returns": {
          "_0": "uint256 number of the reward period"
        }
      },
      "estimateClaimableReward(address)": {
        "params": {
          "_donorAddress": "address of the donor"
        },
        "returns": {
          "_0": "uint256 reward that donor will receive in current reward period if there isn't another donation"
        }
      },
      "owner()": {
        "details": "Returns the address of the current owner."
      },
      "paused()": {
        "details": "Returns true if the contract is paused, and false otherwise."
      },
      "renounceOwnership()": {
        "details": "Leaves the contract without owner. It will not be possible to call `onlyOwner` functions anymore. Can only be called by the current owner. NOTE: Renouncing ownership will leave the contract without an owner, thereby removing any functionality that is only available to the owner."
      },
      "rewardPeriodDonorAmount(uint256,address)": {
        "params": {
          "_donor": "address of the donor",
          "_period": "number of the reward period"
        },
        "returns": {
          "_0": "uint256 amount of cUSD donated by the user in this reward period"
        }
      },
      "transfer(address,address,uint256)": {
        "params": {
          "_amount": "amount of the transaction",
          "_to": "address of the receiver",
          "_token": "address of the ERC20 token"
        }
      },
      "transferOwnership(address)": {
        "details": "Transfers ownership of the contract to a new account (`newOwner`). Can only be called by the current owner."
      },
      "updateClaimDelay(uint256)": {
        "params": {
          "_newClaimDelay": "Number of reward periods a donor has to wait after                            a donation until he will be able to claim his reward"
        }
      },
      "updateRewardPeriodParams(uint256,uint256,uint256)": {
        "params": {
          "_newDecayDenominator": "value of new decayDenominator",
          "_newDecayNumerator": "value of new decayNumerator",
          "_newRewardPeriodSize": "value of new rewardPeriodSize"
        }
      },
      "updateTreasury(address)": {
        "params": {
          "_newTreasury": "address of new treasury_ contract"
        }
      }
    },
    "version": 1
  },
  "userdoc": {
    "events": {
      "ClaimDelayUpdated(uint256,uint256)": {
        "notice": "Triggered when the claimDelay address has been updated"
      },
      "DonationAdded(uint256,address,uint256,address)": {
        "notice": "Triggered when a donation has been added"
      },
      "RewardClaimed(address,uint256)": {
        "notice": "Triggered when a donor has claimed his reward"
      },
      "RewardPeriodParamsUpdated(uint256,uint256,uint256,uint256,uint256,uint256)": {
        "notice": "Triggered when reward period params have been updated"
      },
      "TransferERC20(address,address,uint256)": {
        "notice": "Triggered when an amount of an ERC20 has been transferred from this contract to an address"
      },
      "TreasuryUpdated(address,address)": {
        "notice": "Triggered when the treasury address has been updated"
      }
    },
    "kind": "user",
    "methods": {
      "calculateClaimableRewards(address)": {
        "notice": "Calculates the rewards from ended reward periods of a donor"
      },
      "calculateClaimableRewardsByPeriodNumber(address,uint256)": {
        "notice": "Calculates the rewards from ended reward periods of a donor"
      },
      "claimRewards()": {
        "notice": "Transfers to the sender the rewards"
      },
      "donate(uint256)": {
        "notice": "Transfers cUSD tokens to the treasury contract"
      },
      "donorRewardPeriod(address,uint256)": {
        "notice": "Returns a reward period number from a donor reward period list"
      },
      "estimateClaimableReward(address)": {
        "notice": "Calculates the estimate reward of a donor for current reward period"
      },
      "getVersion()": {
        "notice": "Returns the current implementation version"
      },
      "rewardPeriodDonorAmount(uint256,address)": {
        "notice": "Returns the amount of cUSD donated by a user in a reward period"
      },
      "transfer(address,address,uint256)": {
        "notice": "Transfers an amount of an ERC20 from this contract to an address"
      },
      "updateClaimDelay(uint256)": {
        "notice": "Updates claimDelay value"
      },
      "updateRewardPeriodParams(uint256,uint256,uint256)": {
        "notice": "Updates reward period default params"
      },
      "updateTreasury(address)": {
        "notice": "Updates Treasury address"
      }
    },
    "version": 1
  },
  "storageLayout": {
    "storage": [
      {
        "astId": 538,
        "contract": "contracts/token/DonationMinerImplementationV2.sol:DonationMinerImplementationV2",
        "label": "_initialized",
        "offset": 0,
        "slot": "0",
        "type": "t_bool"
      },
      {
        "astId": 541,
        "contract": "contracts/token/DonationMinerImplementationV2.sol:DonationMinerImplementationV2",
        "label": "_initializing",
        "offset": 1,
        "slot": "0",
        "type": "t_bool"
      },
      {
        "astId": 792,
        "contract": "contracts/token/DonationMinerImplementationV2.sol:DonationMinerImplementationV2",
        "label": "__gap",
        "offset": 0,
        "slot": "1",
        "type": "t_array(t_uint256)50_storage"
      },
      {
        "astId": 418,
        "contract": "contracts/token/DonationMinerImplementationV2.sol:DonationMinerImplementationV2",
        "label": "_owner",
        "offset": 0,
        "slot": "51",
        "type": "t_address"
      },
      {
        "astId": 531,
        "contract": "contracts/token/DonationMinerImplementationV2.sol:DonationMinerImplementationV2",
        "label": "__gap",
        "offset": 0,
        "slot": "52",
        "type": "t_array(t_uint256)49_storage"
      },
      {
        "astId": 599,
        "contract": "contracts/token/DonationMinerImplementationV2.sol:DonationMinerImplementationV2",
        "label": "_paused",
        "offset": 0,
        "slot": "101",
        "type": "t_bool"
      },
      {
        "astId": 690,
        "contract": "contracts/token/DonationMinerImplementationV2.sol:DonationMinerImplementationV2",
        "label": "__gap",
        "offset": 0,
        "slot": "102",
        "type": "t_array(t_uint256)49_storage"
      },
      {
        "astId": 705,
        "contract": "contracts/token/DonationMinerImplementationV2.sol:DonationMinerImplementationV2",
        "label": "_status",
        "offset": 0,
        "slot": "151",
        "type": "t_uint256"
      },
      {
        "astId": 748,
        "contract": "contracts/token/DonationMinerImplementationV2.sol:DonationMinerImplementationV2",
        "label": "__gap",
        "offset": 0,
        "slot": "152",
        "type": "t_array(t_uint256)49_storage"
      },
      {
        "astId": 18275,
        "contract": "contracts/token/DonationMinerImplementationV2.sol:DonationMinerImplementationV2",
        "label": "cUSD",
        "offset": 0,
        "slot": "201",
        "type": "t_contract(IERC20)3196"
      },
      {
        "astId": 18279,
        "contract": "contracts/token/DonationMinerImplementationV2.sol:DonationMinerImplementationV2",
        "label": "PACT",
        "offset": 0,
        "slot": "202",
        "type": "t_contract(IERC20)3196"
      },
      {
        "astId": 18283,
        "contract": "contracts/token/DonationMinerImplementationV2.sol:DonationMinerImplementationV2",
        "label": "treasury",
        "offset": 0,
        "slot": "203",
        "type": "t_contract(ITreasury)18852"
      },
      {
        "astId": 18286,
        "contract": "contracts/token/DonationMinerImplementationV2.sol:DonationMinerImplementationV2",
        "label": "rewardPeriodSize",
        "offset": 0,
        "slot": "204",
        "type": "t_uint256"
      },
      {
        "astId": 18289,
        "contract": "contracts/token/DonationMinerImplementationV2.sol:DonationMinerImplementationV2",
        "label": "donationCount",
        "offset": 0,
        "slot": "205",
        "type": "t_uint256"
      },
      {
        "astId": 18292,
        "contract": "contracts/token/DonationMinerImplementationV2.sol:DonationMinerImplementationV2",
        "label": "rewardPeriodCount",
        "offset": 0,
        "slot": "206",
        "type": "t_uint256"
      },
      {
        "astId": 18295,
        "contract": "contracts/token/DonationMinerImplementationV2.sol:DonationMinerImplementationV2",
        "label": "decayNumerator",
        "offset": 0,
        "slot": "207",
        "type": "t_uint256"
      },
      {
        "astId": 18298,
        "contract": "contracts/token/DonationMinerImplementationV2.sol:DonationMinerImplementationV2",
        "label": "decayDenominator",
        "offset": 0,
        "slot": "208",
        "type": "t_uint256"
      },
      {
        "astId": 18304,
        "contract": "contracts/token/DonationMinerImplementationV2.sol:DonationMinerImplementationV2",
        "label": "donations",
        "offset": 0,
        "slot": "209",
        "type": "t_mapping(t_uint256,t_struct(Donation)18583_storage)"
      },
      {
        "astId": 18310,
        "contract": "contracts/token/DonationMinerImplementationV2.sol:DonationMinerImplementationV2",
        "label": "rewardPeriods",
        "offset": 0,
        "slot": "210",
        "type": "t_mapping(t_uint256,t_struct(RewardPeriod)18558_storage)"
      },
      {
        "astId": 18316,
        "contract": "contracts/token/DonationMinerImplementationV2.sol:DonationMinerImplementationV2",
        "label": "donors",
        "offset": 0,
        "slot": "211",
        "type": "t_mapping(t_address,t_struct(Donor)18567_storage)"
      },
      {
        "astId": 18319,
        "contract": "contracts/token/DonationMinerImplementationV2.sol:DonationMinerImplementationV2",
        "label": "claimDelay",
        "offset": 0,
        "slot": "212",
        "type": "t_uint256"
      }
    ],
    "types": {
      "t_address": {
        "encoding": "inplace",
        "label": "address",
        "numberOfBytes": "20"
      },
      "t_array(t_uint256)49_storage": {
        "base": "t_uint256",
        "encoding": "inplace",
        "label": "uint256[49]",
        "numberOfBytes": "1568"
      },
      "t_array(t_uint256)50_storage": {
        "base": "t_uint256",
        "encoding": "inplace",
        "label": "uint256[50]",
        "numberOfBytes": "1600"
      },
      "t_bool": {
        "encoding": "inplace",
        "label": "bool",
        "numberOfBytes": "1"
      },
      "t_contract(IERC20)3196": {
        "encoding": "inplace",
        "label": "contract IERC20",
        "numberOfBytes": "20"
      },
      "t_contract(ITreasury)18852": {
        "encoding": "inplace",
        "label": "contract ITreasury",
        "numberOfBytes": "20"
      },
      "t_mapping(t_address,t_struct(Donor)18567_storage)": {
        "encoding": "mapping",
        "key": "t_address",
        "label": "mapping(address => struct IDonationMinerV2.Donor)",
        "numberOfBytes": "32",
        "value": "t_struct(Donor)18567_storage"
      },
      "t_mapping(t_address,t_uint256)": {
        "encoding": "mapping",
        "key": "t_address",
        "label": "mapping(address => uint256)",
        "numberOfBytes": "32",
        "value": "t_uint256"
      },
      "t_mapping(t_uint256,t_struct(Donation)18583_storage)": {
        "encoding": "mapping",
        "key": "t_uint256",
        "label": "mapping(uint256 => struct IDonationMinerV2.Donation)",
        "numberOfBytes": "32",
        "value": "t_struct(Donation)18583_storage"
      },
      "t_mapping(t_uint256,t_struct(RewardPeriod)18558_storage)": {
        "encoding": "mapping",
        "key": "t_uint256",
        "label": "mapping(uint256 => struct IDonationMinerV2.RewardPeriod)",
        "numberOfBytes": "32",
        "value": "t_struct(RewardPeriod)18558_storage"
      },
      "t_mapping(t_uint256,t_uint256)": {
        "encoding": "mapping",
        "key": "t_uint256",
        "label": "mapping(uint256 => uint256)",
        "numberOfBytes": "32",
        "value": "t_uint256"
      },
      "t_struct(Donation)18583_storage": {
        "encoding": "inplace",
        "label": "struct IDonationMinerV2.Donation",
        "members": [
          {
            "astId": 18569,
            "contract": "contracts/token/DonationMinerImplementationV2.sol:DonationMinerImplementationV2",
            "label": "donor",
            "offset": 0,
            "slot": "0",
            "type": "t_address"
          },
          {
            "astId": 18571,
            "contract": "contracts/token/DonationMinerImplementationV2.sol:DonationMinerImplementationV2",
            "label": "target",
            "offset": 0,
            "slot": "1",
            "type": "t_address"
          },
          {
            "astId": 18573,
            "contract": "contracts/token/DonationMinerImplementationV2.sol:DonationMinerImplementationV2",
            "label": "rewardPeriod",
            "offset": 0,
            "slot": "2",
            "type": "t_uint256"
          },
          {
            "astId": 18575,
            "contract": "contracts/token/DonationMinerImplementationV2.sol:DonationMinerImplementationV2",
            "label": "blockNumber",
            "offset": 0,
            "slot": "3",
            "type": "t_uint256"
          },
          {
            "astId": 18577,
            "contract": "contracts/token/DonationMinerImplementationV2.sol:DonationMinerImplementationV2",
            "label": "amount",
            "offset": 0,
            "slot": "4",
            "type": "t_uint256"
          },
          {
            "astId": 18580,
            "contract": "contracts/token/DonationMinerImplementationV2.sol:DonationMinerImplementationV2",
            "label": "token",
            "offset": 0,
            "slot": "5",
            "type": "t_contract(IERC20)3196"
          },
          {
            "astId": 18582,
            "contract": "contracts/token/DonationMinerImplementationV2.sol:DonationMinerImplementationV2",
            "label": "tokenPrice",
            "offset": 0,
            "slot": "6",
            "type": "t_uint256"
          }
        ],
        "numberOfBytes": "224"
      },
      "t_struct(Donor)18567_storage": {
        "encoding": "inplace",
        "label": "struct IDonationMinerV2.Donor",
        "members": [
          {
            "astId": 18560,
            "contract": "contracts/token/DonationMinerImplementationV2.sol:DonationMinerImplementationV2",
            "label": "lastClaim",
            "offset": 0,
            "slot": "0",
            "type": "t_uint256"
          },
          {
            "astId": 18562,
            "contract": "contracts/token/DonationMinerImplementationV2.sol:DonationMinerImplementationV2",
            "label": "rewardPeriodsCount",
            "offset": 0,
            "slot": "1",
            "type": "t_uint256"
          },
          {
            "astId": 18566,
            "contract": "contracts/token/DonationMinerImplementationV2.sol:DonationMinerImplementationV2",
            "label": "rewardPeriods",
            "offset": 0,
            "slot": "2",
            "type": "t_mapping(t_uint256,t_uint256)"
          }
        ],
        "numberOfBytes": "96"
      },
      "t_struct(RewardPeriod)18558_storage": {
        "encoding": "inplace",
        "label": "struct IDonationMinerV2.RewardPeriod",
        "members": [
          {
            "astId": 18545,
            "contract": "contracts/token/DonationMinerImplementationV2.sol:DonationMinerImplementationV2",
            "label": "rewardPerBlock",
            "offset": 0,
            "slot": "0",
            "type": "t_uint256"
          },
          {
            "astId": 18547,
            "contract": "contracts/token/DonationMinerImplementationV2.sol:DonationMinerImplementationV2",
            "label": "rewardAmount",
            "offset": 0,
            "slot": "1",
            "type": "t_uint256"
          },
          {
            "astId": 18549,
            "contract": "contracts/token/DonationMinerImplementationV2.sol:DonationMinerImplementationV2",
            "label": "startBlock",
            "offset": 0,
            "slot": "2",
            "type": "t_uint256"
          },
          {
            "astId": 18551,
            "contract": "contracts/token/DonationMinerImplementationV2.sol:DonationMinerImplementationV2",
            "label": "endBlock",
            "offset": 0,
            "slot": "3",
            "type": "t_uint256"
          },
          {
            "astId": 18553,
            "contract": "contracts/token/DonationMinerImplementationV2.sol:DonationMinerImplementationV2",
            "label": "donationsAmount",
            "offset": 0,
            "slot": "4",
            "type": "t_uint256"
          },
          {
            "astId": 18557,
            "contract": "contracts/token/DonationMinerImplementationV2.sol:DonationMinerImplementationV2",
            "label": "donorAmounts",
            "offset": 0,
            "slot": "5",
            "type": "t_mapping(t_address,t_uint256)"
          }
        ],
        "numberOfBytes": "192"
      },
      "t_uint256": {
        "encoding": "inplace",
        "label": "uint256",
        "numberOfBytes": "32"
      }
    }
  }
}